:100000000C9487000C94C6040C949F040C94210556
:100010000C9421050C9421050C94AF000C94AF00B6
:100020000C94AF000C94AF000C94AF000C94AF0094
:100030000C94AF000C94ED040C94AF000C94AF0042
:100040000C9455040C94AF000C9464030C943E0380
:100050000C94AF000C94AF000C94AF000C94AF0064
:100060000C949B050C94AF001C0A310A310A300A2B
:10007000310A0E0A310A310A310A100A310A310AEC
:10008000230A2E0A2C0A310A310A310A2A0A30358B
:100090003A30393A33390044656320313420323004
:1000A0003137001F1C1F1E1F1E1F1F1E1F1E1F007B
:1000B000000000240027002A0000000008000201C0
:1000C0000000030407000000000000000000000022
:1000D00000250028002B0000000000230026002936
:1000E00000040404040404040402020202020203E1
:1000F00003030303030102040810204080010204EB
:1001000008102001020408102000D40DB80D11249D
:100110001FBECFEFD8E0DEBFCDBF24E0AAEEB1E036
:1001200001C01D92A131B207E1F711E0A0E0B1E0FA
:10013000E6E3F3E202C005900D92AA3EB107D9F7BB
:1001400010E0C6E8D0E004C02197FE010E947C0FB9
:10015000C538D107C9F70E94F8080C948E110C9489
:100160000000FC01538D448D252F30E0842F90E05A
:10017000821B930B541710F0CF96089501970895A2
:10018000FC01918D828D981761F0828DDF01A80F9F
:10019000B11D5D968C91928D9F5F9F73928F90E0C1
:1001A00008958FEF9FEF0895FC01918D828D981730
:1001B00031F0828DE80FF11D858D90E008958FEF6D
:1001C0009FEF0895FC01918D228D892F90E0805C36
:1001D0009F4F821B91098F73992708958DEF92E0AD
:1001E0000E94E20021E0892B09F420E0822F08958B
:1001F000FC01848DDF01A80FB11DA35ABF4F2C91C4
:10020000848D90E001968F739927848FA689B78992
:100210002C93A089B1898C9180648C93938D848D6B
:10022000981306C00288F389E02D80818F7D80833A
:100230000895EF92FF920F931F93CF93DF93EC01FA
:1002400081E0888F9B8D8C8D981305C0E889F98992
:10025000808185FD24C0F62E0B8D10E00F5F1F4FAF
:100260000F731127E02E8C8DE8120CC00FB607FC1F
:10027000FACFE889F989808185FFF5CFCE010E9408
:10028000F800F1CF8B8DFE01E80FF11DE35AFF4F0F
:10029000F0820B8FEA89FB898081806207C0EE893A
:1002A000FF896083E889F98980818064808381E0A7
:1002B00090E0DF91CF911F910F91FF90EF90089503
:1002C000CF93DF93EC01888D8823C9F0EA89FB89FD
:1002D000808185FD05C0A889B9898C9186FD0FC0F4
:1002E0000FB607FCF5CF808185FFF2CFA889B989C9
:1002F0008C9185FFEDCFCE010E94F800E7CFDF9112
:10030000CF91089580E090E0892B29F00E94EE00C3
:1003100081110C9400000895833081F028F481301D
:1003200099F08230A1F008958730A9F08830B9F0B3
:100330008430D1F4809180008F7D03C08091800053
:100340008F7780938000089584B58F7702C084B53D
:100350008F7D84BD08958091B0008F7703C0809118
:10036000B0008F7D8093B000089508952091A7027A
:100370003091A8022817390771F49091A602809154
:10038000A502981741F0E091A602F0E0EB59FD4F6D
:10039000808190E008958FEF9FEF089508951F9357
:1003A000CF93DF93DC015C962D913C915D972115F5
:1003B000310539F481E090E013969C938E93129767
:1003C0003DC05196ED91FC91529750969C9150975B
:1003D000892F80951FB75E964C915E9741FB7727DA
:1003E00070F941FD6095F8944081772311F0492B15
:1003F00001C048234083E9012197F1F748E050818B
:1004000060FF02C0592B01C058235083E901219796
:10041000F1F76695415099F7772321F09081892370
:10042000808303C08081982B90831FBF5C968D9141
:100430009C915D970197F1F721E030E0C901DF91D0
:10044000CF911F9108952091A7023091A8022817FB
:10045000390771F48091A5022091A60290E0805C9A
:100460009F4F821B910960E470E00E94680F08951D
:1004700080E090E008952091A7023091A80228170B
:100480003907B9F49091A6028091A502981789F0D6
:10049000E091A602F0E0EB59FD4F80812091A60289
:1004A00030E02F5F3F4F2F7333272093A60290E059
:1004B00008958FEF9FEF089585ED8093BC008091A4
:1004C000BC0084FDFCCF1092D802089540914002F8
:1004D000262F30E0240F311D21323105DCF420912C
:1004E000D8022430C9F4FC0180E090E0861758F46B
:1004F000309140022191DC01A25EBD4FA30FB11DDE
:100500002C930196F3CF80914002680F60934002D4
:1005100080E0089581E0089582E008950895E091D3
:10052000F1018091F001E81730F4F0E0EE50FE4F59
:10053000808190E008958FEF9FEF08959091F101F1
:100540008091F001981750F4E92FF0E0EE50FE4F43
:10055000208130E09F5F9093F10102C02FEF3FEFC9
:10056000C90108958091F00190E02091F101821B72
:1005700091090895CF92DF92EF92FF920F931F930C
:10058000CF93DF937C01262F972F8A018091D90288
:10059000882391F0C62FD72F6E01C40ED51ECC151F
:1005A000DD0571F06991D701ED91FC910190F08129
:1005B000E02DC7010995F3CF642F822F0E946602B8
:1005C000C801DF91CF911F910F91FF90EF90DF90C5
:1005D000CF900895CF93DF931F92CDB7DEB7698395
:1005E0002091D9022223D1F02091FC02203240F048
:1005F00021E030E0FC013383228380E090E015C0ED
:100600008091DA02E82FF0E0E552FD4F9981908366
:100610008F5F8093DA028093FC0205C061E0CE0117
:1006200001960E94660281E090E00F90DF91CF91E9
:100630000895089580E090E008950E9479118091D6
:100640001D028130D1F48091120290911302019623
:100650009093130280931202409112025091130260
:1006600060E070E02AE08DEF92E00E94990863EA72
:1006700071E08DEF92E00C94840808951F920F9220
:100680000FB60F9211242F933F934F935F936F9365
:100690007F938F939F93AF93BF93EF93FF938DEFD0
:1006A00092E00E94F800FF91EF91BF91AF919F916E
:1006B0008F917F916F915F914F913F912F910F900B
:1006C0000FBE0F901F9018951F920F920FB60F92AA
:1006D00011242F938F939F93EF93FF93E0910D033A
:1006E000F0910E038081E0911303F091140382FDD9
:1006F00012C09081809116038F5F8F732091170332
:10070000821751F0E0911603F0E0E350FD4F958F12
:100710008093160301C08081FF91EF919F918F918B
:100720002F910F900FBE0F901F9018951F93CF938E
:10073000DF93282F30E0F901E754FF4F8491F9014E
:10074000EB50FF4FD491F901EF51FF4FC491CC23EF
:10075000C9F0162F81110E948C01EC2FF0E0EE0FF2
:10076000FF1FE353FF4FA591B4918FB7F894111178
:1007700005C09C91ED2FE095E92302C0EC91ED2B93
:10078000EC938FBFDF91CF911F910895CF93DF93AB
:1007900065ED71E08DEF92E00E94E20888E39AE453
:1007A00000000000000000000197D1F7EBEBF0E043
:1007B0008491E7EFF0E0D491E3EEF0E0C491CC2334
:1007C00071F081110E948C01EC2FF0E0EE0FFF1F01
:1007D000E952FF4FA591B491EC91ED2391F463EEB2
:1007E00071E08DEF92E00E94E20861E08DE00E94EE
:1007F000960381E080931D02109213021092120260
:1008000009C060E08DE00E94960310921D0281E015
:1008100080931402DF91CF910895CF93DF9390E0FE
:10082000FC01EB50FF4F2491FC01EF51FF4F8491ED
:10083000882361F190E0880F991FFC01E155FF4F7B
:10084000C591D491FC01E353FF4FA591B49161117F
:1008500009C09FB7F8948881209582238883EC9102
:100860002E230BC0623061F49FB7F8943881822F39
:10087000809583238883EC912E2B2C939FBF06C0F9
:100880008FB7F894E8812E2B28838FBFDF91CF910B
:1008900008952FB7F8946091AE027091AF028091E5
:1008A000B0029091B1022FBF08951F920F920FB620
:1008B0000F9211242F933F938F939F93AF93BF93E6
:1008C0008091AE029091AF02A091B002B091B102BE
:1008D0003091AD0223E0230F2D3720F40196A11DA6
:1008E000B11D05C026E8230F0296A11DB11D20935E
:1008F000AD028093AE029093AF02A093B002B0938A
:10090000B1028091A9029091AA02A091AB02B0918C
:10091000AC020196A11DB11D8093A9029093AA0279
:10092000A093AB02B093AC02BF91AF919F918F9116
:100930003F912F910F900FBE0F901F9018951F920F
:100940000F920FB60F9211242F933F934F935F9303
:100950006F937F938F939F93AF93BF93EF93FF9387
:10096000E0910201F09103010995FF91EF91BF9190
:10097000AF919F918F917F916F915F914F913F9137
:100980002F910F900FBE0F901F9018951F920F92EE
:100990000FB60F9211242F933F934F935F936F9352
:1009A0007F938F939F93AF93BF93EF93FF93E091C8
:1009B0000001F09101010995FF91EF91BF91AF9175
:1009C0009F918F917F916F915F914F913F912F9167
:1009D0000F900FBE0F901F9018951F920F920FB699
:1009E0000F9211242F933F934F935F936F937F93B5
:1009F0008F939F93AF93BF93EF93FF93E091EE019B
:100A0000F091EF010995FF91EF91BF91AF919F9107
:100A10008F917F916F915F914F913F912F910F90A7
:100A20000FBE0F901F901895FC01908190539A3043
:100A300008F090E0818180532AE0929F800D11247C
:100A400008951F920F920FB60F9211242F933F9388
:100A50004F935F936F937F938F939F93AF93BF93C6
:100A6000EF93FF93E091A702F091A802309709F469
:100A700051C0968DA685B785858591FF04C09C9150
:100A8000892329F447C09C91892309F043C0A38995
:100A9000B4899C918589809589238C9386899789CF
:100AA0000197F1F7608D718DA685B785558538E082
:100AB00020E0CB010197F1F7822F90E09595879583
:100AC000282F4C91452309F02068315091F7868DED
:100AD00081FD20958091A50290E001968F73992762
:100AE0003091A602381749F0A091A502B0E0AB59A9
:100AF000BD4F2C938093A50203C0868D8160868FA5
:100B0000828D938D0197F1F7A389B4899C91858992
:100B1000892B8C93FF91EF91BF91AF919F918F9112
:100B20007F916F915F914F913F912F910F900FBEE9
:100B30000F901F9018951F920F920FB60F921124CD
:100B40002F933F934F935F936F937F938F939F93D5
:100B5000AF93BF93EF93FF938091B900887F803666
:100B600009F49CC068F5883209F45BC090F48031C8
:100B700009F454C038F4882309F4F6C0883009F425
:100B80004DC0F6C0883109F44CC0803209F45DC014
:100B9000EFC0803409F468C048F4803309F455C0CC
:100BA000883309F0E5C08093D602D8C0803509F4B7
:100BB0004FC0883509F45DC0883409F0D9C0D6C06B
:100BC000883909F4C7C0A8F4883709F467C038F435
:100BD000883609F463C0803709F460C0C9C088381A
:100BE00009F4B8C0803909F45FC0803809F0C0C08A
:100BF0005BC0803B09F486C038F4803A09F466C0D3
:100C0000883A09F47FC0B4C0803C09F4A7C0883C8E
:100C100009F4A4C0883B09F48AC0AAC08091B30239
:100C200010C09091D5028091D402981770F5E09190
:100C3000D50281E08E0F8093D502F0E0EC54FD4F99
:100C400080818093BB0085EC86C08093D6028EC0E5
:100C5000E091D50281E08E0F8093D5028091BB0098
:100C6000F0E0EC54FD4F80839091D5028091D40246
:100C70006EC0E091D50281E08E0F8093D502809105
:100C8000BB00F0E0EC54FD4F80838091D7028111CE
:100C90006DC081E08093B20284EA61C083E08093FA
:100CA000D80210926402CFCF80916402803208F0A3
:100CB00051C0E091640281E08E0F809364028091C4
:100CC000BB00F0E0EC5BFD4F8083BDCF85EC8093F3
:100CD000BC001092D80280916402803230F4E0911E
:100CE0006402F0E0EC5BFD4F10826091640270E002
:100CF000E0914202F091430284E492E0099510925F
:100D0000640236C084E08093D802109241021092AF
:100D10004002E0913E02F0913F020995809140022D
:100D2000811105C081E08093400210921E02E09183
:100D3000410281E08E0F80934102F0E0E25EFD4FC0
:100D400080818093BB00909141028091400298176E
:100D500008F479CF85E88093BC000AC085EC8093C5
:100D6000BC001092D80204C01092D6020E945C020D
:100D7000FF91EF91BF91AF919F918F917F916F9173
:100D80005F914F913F912F910F900FBE0F901F9049
:100D90001895CF92DF92EF92FF920F931F93CF930C
:100DA000DF936C017A018B01C0E0D0E0CE15DF0546
:100DB00089F0D8016D918D01D601ED91FC910190E2
:100DC000F081E02DC6010995892B11F47E0102C046
:100DD0002196ECCFC701DF91CF911F910F91FF902A
:100DE000EF90DF90CF9008950F931F93CF93DF93F1
:100DF000EC0188819981009729F02A813B8126178F
:100E0000370788F48B016F5F7F4F0E94AF10009708
:100E100061F0998388831B830A832C813D81232B76
:100E200011F4FC01108281E001C080E0DF91CF91DC
:100E30001F910F910895EDEFF2E0A089B18982E052
:100E40008C93A485B5851C92A685B7858FEC8C9371
:100E5000108EA489B58986E08C93A289B3898C9180
:100E600080618C93A289B3898C9188608C93A289CC
:100E7000B3898C9180688C930288F389E02D8081FE
:100E80008F7D80830895E091FD02F091FE02019034
:100E9000F081E02D682F8DEF92E009942091FC0203
:100EA0009091FB02213208F04AC08091D802811152
:100EB000FCCF32E03093D80231E03093D7023FEFDD
:100EC0003093D6021092D5022093D402ABEDB2E05B
:100ED00044EB52E0FA013E2F341B321718F43D91D7
:100EE0003193F9CF1092B3022091B302990F922B54
:100EF0009093B3029091B202913061F41092B202D9
:100F00009091B3029093BB009091BC0093FDF8CFF9
:100F100095EC01C095EE9093BC009091D802923070
:100F2000E1F39091D6029F3F79F08091D602803212
:100F300041F08091D602803331F084E005C081E039
:100F400003C082E001C083E01092DA021092FC023A
:100F50001092D90208958F929F92AF92BF92CF9232
:100F6000DF92EF92FF926B017C010E9449044B01DA
:100F70005C01C60ED71EE81EF91E0E9449046815C2
:100F800079058A059B0528F0C616D706E806F906F6
:100F9000A0F7FF90EF90DF90CF90BF90AF909F9021
:100FA0008F900895EF92FF920F931F93CF93DF934B
:100FB000FC01248135816115710511F480E019C0AF
:100FC00041155105A9F07B01EC018A01020F131FA5
:100FD000B8010E94F406882389F3288139818C8125
:100FE0009D81B701820F931F0E9487111D830C837F
:100FF00081E0DF91CF911F910F91FF90EF900895C5
:10100000CF93DF93EC0188819981009711F00E94C2
:101010001710198218821D821C821B821A82DF918E
:10102000CF910895CF93DF93EC016115710561F0C5
:10103000FB0101900020E9F73197AF01461B570BE8
:101040000E94D207811103C0CE010E940008CE0188
:10105000DF91CF910895EF92FF920F931F93CF935B
:10106000DF93EC017B018A01BA010E94F406811131
:1010700004C0CE010E94000807C01D830C83B70185
:10108000888199810E948711CE01DF91CF911F91B4
:101090000F91FF90EF900895EF92FF920F931F939F
:1010A000CF93DF93CDB7DEB761970FB6F894DEBF6D
:1010B0000FBECDBF8C01CB01F801118210821382CB
:1010C00012821582148250E09E012F5F3F4F7901FA
:1010D000B9010E94BA0EF70101900020E9F731979B
:1010E000AF014E195F09B701C8010E942B08619634
:1010F0000FB6F894DEBF0FBECDBFDF91CF911F9129
:101100000F91FF90EF9008956115710579F0FB0143
:1011100001900020E9F73197AF01461B570BDC0126
:10112000ED91FC910280F381E02D099480E090E044
:1011300008954F925F926F927F92EF92FF920F937A
:101140001F93CF93DF93CDB7DEB7A1970FB6F89477
:10115000DEBF0FBECDBF7C01FA01CB0119A2223048
:1011600008F42AE08E010F5D1F4F422E512C612C96
:10117000712CBF01A30192010E94EF0EF901CA0177
:10118000015011096A3014F4605D01C0695CD80136
:101190006C93232B242B252B61F7B801C7010E94E8
:1011A0008408A1960FB6F894DEBF0FBECDBFDF91C5
:1011B000CF911F910F91FF90EF907F906F905F9074
:1011C0004F9008950F931F93CF93DF93EC010E94EC
:1011D00084088C0163EA71E0CE010E948408800FCC
:1011E000911FDF91CF911F910F9108950C94840866
:1011F000CF93DF93CDB7DEB7A0970FB6F894DEBFDD
:101200000FBECDBF789484B5826084BD84B5816003
:1012100084BD85B5826085BD85B5816085BD8091C1
:101220006E00816080936E00109281008091810039
:101230008260809381008091810081608093810031
:10124000809180008160809380008091B1008460F3
:101250008093B1008091B00081608093B000809154
:101260007A00846080937A0080917A008260809313
:101270007A0080917A00816080937A0080917A0070
:10128000806880937A001092C1001092DE03109261
:10129000DF031092E0031092E10310929C0310927E
:1012A0009D0310929E0310929F0368EB7BE080E009
:1012B00090E00E94AB078DEF92E09093DD03809366
:1012C000DC030E941B070E94490460939C037093F7
:1012D0009D0380939E0390939F0364E971E0809146
:1012E000DC039091DD030E94F6086AE070E080E084
:1012F00090E00E94AB0701E00093B0030E941B073F
:1013000062E082E00E940D0486EC93E0909301017C
:1013100080930001809169008C7F816080936900D7
:10132000E89A61E08DE00E940D041092800080E157
:101330008093810084E08093EC018FB78093ED016E
:10134000F89482E19AE79093EB018093EA019093FD
:101350008700809386008091ED018FBF809181008E
:10136000887F80938100909181008091EC01982B7F
:10137000909381002FE133E03093EF012093EE0151
:1013800000936F0090918100892B8093810060E031
:101390008DE00E9496031092F1011092F0011092DC
:1013A000DA021092FC021092D8020093D702109237
:1013B000B20261E082E10E94960361E083E10E9453
:1013C00096038091B9008E7F8093B9008091B90017
:1013D0008D7F8093B90088E48093B80085E4809382
:1013E000BC004BE050E067E970E0CE0101960E943E
:1013F000B10ECE010A960E941405082FE9814E2FE6
:10140000EE0F550B660B770BFA01E154F109E3314E
:10141000F10538F5EC5CFF4F0C947C0F12E021C015
:101420008A81813629F08B818E3621F017E019C030
:1014300011E017C016E015C08B81823711F018E05B
:1014400010C014E00EC08B81823711F015E009C086
:1014500013E007C019E005C01AE003C01BE001C09B
:101460001CE0CE0105960E941405E82E48E050E0ED
:101470006EE870E0CE0101960E94B10ECE01019699
:101480000E941405D82ECE0104960E941405C82E81
:10149000CE0107960E941405B82E81E08093D902F0
:1014A00088E68093FB021092DA021092FC0260E060
:1014B00082EE93E00E94EA028AE0F82E8B2D6F2DD7
:1014C0000E94480F482F880F480F440F642F6B0D60
:1014D00082EE93E00E94EA028C2D6F2D0E94480F4D
:1014E000382F880F380F330F632F6C0D82EE93E087
:1014F0000E94EA028D2D6F2D0E94480F282F880F21
:10150000280F220F622F6D0D82EE93E00E94EA02F7
:1015100060E082EE93E00E94EA028E2D6F2D0E9421
:10152000480F982F880F980F990F692F6E0D82EE34
:1015300093E00E94EA02812F6F2D0E94480F682FCE
:10154000660F860F880F682F610F82EE93E00E946E
:10155000EA02802F6F2D0E94480F682F660F680FD8
:10156000660F600F82EE93E00E94EA020E944E072F
:1015700094EF492E55245394612C712C2CE3222E88
:10158000312C5E0128E1A20EB11C8824839483EAE9
:1015900090E0382D381B38A30E944904672B682B34
:1015A000692B41F40E94490462307105810591055F
:1015B00008F404C10E9449046093190270931A024E
:1015C00080931B0290931C02009115021091160249
:1015D0002091170230911802601771078207930754
:1015E00040F4609315027093160280931702909353
:1015F00018020091150210911602209117023091E5
:1016000018026B017C01C01AD10AE20AF30A9701A1
:1016100086010A3F11052105310508F4CFC060930A
:10162000150270931602809317029093180240924D
:10163000A8035092A9036092AA037092AB03109280
:10164000AC031092AD031092AE031092AF038091E1
:10165000A0039091A103A091A203B091A303809352
:10166000A4039093A503A093A603B093A7030E949D
:1016700049046093A0037093A1038093A203909305
:10168000A3030E94490460939C0370939D0380937D
:101690009E0390939F030E9449046B017C0166EABC
:1016A00071E08091DC039091DD030E94F6082AE04E
:1016B00041E050E060E070E08091DC039091DD0358
:1016C0000E9499086DEA71E08091DC039091DD033E
:1016D0000E94F6082AE0B701A6018091DC039091F0
:1016E000DD030E9499086FEA71E08091DC0390911C
:1016F000DD030E94F6088091A0039091A103A091C0
:10170000A203B091A303B701A601481B590B6A0BB2
:101710007B0B2AE08091DC039091DD030E94990805
:101720006FEA71E08091DC039091DD030E94F6087E
:101730004091A0035091A1036091A2037091A30373
:101740008091A4039091A503A091A603B091A70353
:10175000481B590B6A0B7B0B2AE08091DC039091AC
:10176000DD030E94990861EB71E08091DC039091A8
:10177000DD030E94F6080E944904AB01BC012AE087
:101780008091DC039091DD030E94990863EB71E086
:101790008091DC039091DD030E94E20865E070E037
:1017A00080E090E00E94AB070E9449046093A00390
:1017B0007093A1038093A2039093A30380911402DA
:1017C000813009F080C01092140280911202909131
:1017D0001302B1010E94540F4AE0BC01CE010196F0
:1017E0000E944C088091120290911302B1010E9454
:1017F000540F4AE0CE010C960E944C081B8A1A8AAC
:101800001D8A1C8A1F8A1E8A48E050E06AEB71E03C
:10181000CE0142960E942B08488959896C857D85A6
:10182000CE0142960E94D207811104C0CE01429699
:101830000E94000863EC71E0CE0142960E941208FB
:101840008C014D815E8169817A810E94D20781116C
:1018500003C0C8010E9400086AEC71E0C8010E9440
:101860001208198E188E1B8E1A8E1D8E1C8E8A15CC
:101870009B0559F0FC01608171816115710529F0AA
:1018800044815581C5010E942B088A899B890E9449
:1018900017108C859D850E94171089819A810E945E
:1018A00017104C8D5D8D688D798D8DEF92E00E94C3
:1018B000C90663EA71E08DEF92E00E948408888D8A
:1018C000998D0E9417108092D902F8E6F093FB02DE
:1018D0001092DA021092FC0260E082EE93E00E9425
:1018E000EA020E944E078091D8028111FCCF8092BB
:1018F000D8028092D7028FEF8093D6021092D50241
:1019000086E08093D4028092B3028091B302806D0E
:101910008093B3028091B202813061F41092B202DE
:101920008091B3028093BB008091BC0083FDF8CF0F
:1019300085EC01C085EE8093BC008091D802813097
:10194000E1F38091D502873018F48091D50201C06F
:1019500087E0A4EBB2E0E2EFF1E09E2F12EFC12EA0
:1019600011E0D12E9C19981718F49D919193F5CF01
:101970001092F1018093F00182EE93E00E949E02AA
:101980008F77982F92959F705AEFF52E082F9F9D75
:10199000000D112482EE93E00E949E029C013327E9
:1019A00064E0359527956A95E1F7D82EF29ED00C24
:1019B0001124DE8E82EE93E00E949E029C0133276A
:1019C00074E0359527957A95E1F7E82EF29EE00CC4
:1019D0001124EF8E82EE93E00E949E0282EE93E04D
:1019E0000E949E029C013327E4E035952795EA95F5
:1019F000E1F7182FF29E100D112482EE93E00E9461
:101A00009E029C013327F4E035952795FA95E1F77E
:101A1000982EF29E900C112482EE93E00E949E027A
:101A20009C013327A4E035952795AA95E1F7F29E0E
:101A3000800D1124C82ED12C760120E3E21A28EF64
:101A4000F20AA7010F2C000C660B770B2AE08DEF32
:101A500092E00E9499088FE20E944307492D50E0CE
:101A600060E070E02AE08DEF92E00E9499088FE23A
:101A70000E944307412F50E060E070E02AE08DEFC4
:101A800092E00E9499086FEC71E08DEF92E00E9465
:101A9000F608212F30E0E3EAF0E088A18E0F8915E7
:101AA00028F48491280F311D3196F7CF42E0491573
:101AB00038F4C60183709927892B11F42F5F3F4FAB
:101AC000EDE6F1E0CE9EC001CF9E900DDE9E900D22
:101AD0001124FDECEF1AF7E0FF0AF694E794F69470
:101AE000E7948E0D9F1D0596820F931F67E070E0AF
:101AF0000E94540F2CE0289FB001299F700D1124E3
:101B00006C5F7E4F8DEF92E00E94F60862ED71E00F
:101B10008DEF92E00E94F608CF8C4C2D50E060E0F3
:101B200070E02AE08DEF92E00E9499088AE30E941B
:101B30004307DE8C4D2D50E060E070E02AE08DEF31
:101B400092E00E9499088AE30E944307402F50E0E8
:101B500060E070E02AE08DEF92E00E94990863EA6D
:101B600071E08DEF92E00E9484080E94820114CD02
:101B700086E891E09093EF038093EE038091A702B3
:101B80009091A8028E5E934071F4E0910104F0916F
:101B900002049081809103048095892380831092B0
:101BA000A8021092A7020895109200031092FF025B
:101BB00088EE93E0A0E0B0E08093010390930203ED
:101BC000A0930303B093040322E631E03093FE02B6
:101BD0002093FD0225EC30E030930A0320930903A3
:101BE00024EC30E030930C0320930B0320EC30E026
:101BF00030930E0320930D0321EC30E0309310035B
:101C000020930F0322EC30E0309312032093110352
:101C100026EC30E030931403209313031092160344
:101C20001092170310921803109219031092A00338
:101C30001092A1031092A2031092A3031092A40386
:101C40001092A5031092A6031092A7031092A80366
:101C50001092A9031092AA031092AB031092AC0346
:101C60001092AD031092AE031092AF031092E503F1
:101C70001092E4038093E6039093E703A093E803B4
:101C8000B093E90324E731E03093E3032093E203C8
:101C90001092F1031092F0038093F2039093F303F8
:101CA000A093F403B093F50386E891E09093EF03DB
:101CB0008093EE031092050410920404109207041E
:101CC00010920604109209041092080410920B045A
:101CD00010920A0460910C046E7F6D7F60930C0477
:101CE0006695617081E068278BE00E94960361E051
:101CF0008BE00E940D04E0E0F1E0E491E093FE034C
:101D0000ECEEF0E0E491F0E0EE0FFF1FE353FF4F45
:101D100085919491909300048093FF0360E08AE0A2
:101D20000E940D0480910C0481FD04C061E08AE0F2
:101D30000E9496038AE08093FA03EFEFF0E0E491CB
:101D4000E093FB03EBEEF0E0E491F0E0EE0FFF1F19
:101D5000E952FF4F859194919093FD038093FC038A
:101D60000895FB01DC0102C005900D9241505040E6
:101D7000D8F708954532510520F4423010F00C9404
:101D8000C50EFB011082CB010895BB27FB0155272F
:101D9000AA27880F991FAA1FA41710F0A41B8395C8
:101DA0005051B9F7A05DAA3308F0A95DA19300973F
:101DB00079F7B111B1931192CB010C94DF0EDC01D4
:101DC000FC01672F71917723E1F7329704C07C9172
:101DD0006D9370836291AE17BF07C8F30895A1E2B7
:101DE0001A2EAA1BBB1BFD010DC0AA1FBB1FEE1F95
:101DF000FF1FA217B307E407F50720F0A21BB30BE0
:101E0000E40BF50B661F771F881F991F1A9469F75B
:101E100060957095809590959B01AC01BD01CF01B7
:101E200008952F923F924F925F926F927F928F927E
:101E30009F92AF92BF92CF92DF92EF92FF920F9359
:101E40001F93CF93DF93CDB7DEB7CA1BDB0B0FB663
:101E5000F894DEBF0FBECDBF09942A883988488820
:101E60005F846E847D848C849B84AA84B984C884B6
:101E7000DF80EE80FD800C811B81AA81B981CE0FAD
:101E8000D11D0FB6F894DEBF0FBECDBFED01089592
:101E9000991B79E004C0991F961708F0961B881FBC
:101EA0007A95C9F780950895AA1BBB1B51E107C01D
:101EB000AA1FBB1FA617B70710F0A61BB70B881FDA
:101EC000991F5A95A9F780959095BC01CD01089569
:101ED00097FB072E16F4009407D077FD09D00E94D7
:101EE000540F07FC05D03EF4909581959F4F0895BF
:101EF000709561957F4F0895EE0FFF1F0590F49147
:101F0000E02D0994CF93DF938230910510F482E0A5
:101F100090E0E0910F04F091100420E030E0C0E088
:101F2000D0E0309711F14081518148175907C0F036
:101F30004817590761F482819381209719F09B8398
:101F40008A832BC09093100480930F0426C0211520
:101F5000310519F04217530718F49A01BE01DF0149
:101F6000EF010280F381E02DDCCF2115310509F16D
:101F7000281B390B2430310590F412968D919C91D9
:101F800013976115710521F0FB019383828304C0CF
:101F90009093100480930F04FD01329644C0FD011C
:101FA000E20FF31F81939193225031092D933C93BB
:101FB0003AC020910D0430910E04232B41F420915E
:101FC0005A0130915B0130930E0420930D0420914F
:101FD0005801309159012115310541F42DB73EB713
:101FE00040915C0150915D01241B350BE0910D0483
:101FF000F0910E04E217F307A0F42E1B3F0B2817F5
:10200000390778F0AC014E5F5F4F2417350748F071
:102010004E0F5F1F50930E0440930D0481939193D4
:1020200002C0E0E0F0E0CF01DF91CF9108950F937F
:102030001F93CF93DF93009709F48CC0FC01329774
:102040001382128200910F041091100401151105E2
:1020500081F420813181820F931F20910D043091F2
:102060000E042817390779F5F0930E04E0930D0458
:1020700071C0D80140E050E0AE17BF0750F412968F
:102080002D913C911397AD012115310509F1D9012D
:10209000F3CF9D01DA013383228360817181860F42
:1020A000971F8217930769F4EC0128813981260F65
:1020B000371F2E5F3F4F318320838A819B8193831B
:1020C0008283452B29F4F0931004E0930F0442C05F
:1020D0001396FC93EE931297ED01499159919E014D
:1020E000240F351FE217F30771F480819181840F6B
:1020F000951F029611969C938E93828193811396DD
:102100009C938E931297E0E0F0E0D80112968D91A7
:102110009C911397009719F0F8018C01F6CF8D91DF
:102120009C9198012E5F3F4F820F931F20910D04C9
:1021300030910E042817390769F4309729F410926A
:10214000100410920F0402C01382128210930E0426
:1021500000930D04DF91CF911F910F910895A0E09E
:10216000B0E0E5EBF0E10C94150FEC01009721F4E1
:10217000CB010E94820FB8C0FC01E60FF71F9C0143
:1021800022503109E217F30708F4ACC0D9010D91D0
:102190001C91119706171707B0F00530110508F4C8
:1021A0009FC0C80104978617970708F499C002508A
:1021B0001109061B170B019311936D937C93CF01AB
:1021C0000E9417108DC05B01A01AB10A4C01800E4D
:1021D000911EA0910F04B091100440E050E0E12C5A
:1021E000F12C109709F44AC0A815B905D1F56D90E6
:1021F0007C901197630182E0C80ED11CCA14DB04E5
:1022000080F1A3014A195B096A0182E0C80ED11C62
:102210001296BC9012971396AC91B5E0CB16D104F0
:1022200040F0B282A38351834083D9016D937C93A4
:102230000AC00E5F1F4FC301800F911FF9019183E8
:102240008083EB2DFA2FE114F10431F0D7011396BE
:10225000FC93EE93129744C0F0931004E0930F04A4
:102260003FC08D919C9111974817590708F4AC0114
:102270007D0112960D90BC91A02DB3CF80910D04DD
:1022800090910E0488159905E1F446175707C8F494
:102290008091580190915901009741F48DB79EB7F4
:1022A00040915C0150915D01841B950BE817F90783
:1022B000C8F4F0930E04E0930D04F9017183608378
:1022C0000FC0CB010E94820F7C01009759F0A8013A
:1022D000BE010E947E11CE010E941710C70104C0EA
:1022E000CE0102C080E090E0CDB7DEB7EEE00C9406
:1022F000310F81E090E0F8940C948E11FB01DC0129
:1023000002C001900D9241505040D8F70895FB0152
:10231000DC0101900D920020E1F7089510E0C6E87D
:10232000D0E004C0FE010E947C0F2196C738D1077F
:06233000C9F7F894FFCF8D
:10233600B501B50153756E646179000000000000B7
:102346004D6F6E646179000000000000547565737E
:1023560064617900000000005765646E657364610E
:10236600790000005468757273646179000000009A
:10237600467269646179000000000000536174755B
:102386007264617900000000000011048000000002
:1023960000001901C906B1006001E200C000D400C6
:1023A60000000000EA02BA021A038E02B2029E027E
:1023B6008F0200000000CF01C9061A03CE012302D6
:1023C6003B02B601564D4450565F317C315F564D47
:1023D6004450560D0A00564D4450455F003A323A75
:1023E600007C005F564D4450450047656E2052758F
:1023F6006E3A00204D696E2C200020536563002044
:10240600280029200045787420496E74657272751B
:0A2416007074004348414E47450032
:107E0000112484B714BE81FFF0D085E080938100F7
:107E100082E08093C00088E18093C10086E0809377
:107E2000C20080E18093C4008EE0C9D0259A86E02C
:107E300020E33CEF91E0309385002093840096BBD3
:107E4000B09BFECF1D9AA8958150A9F7CC24DD24C4
:107E500088248394B5E0AB2EA1E19A2EF3E0BF2EE7
:107E6000A2D0813461F49FD0082FAFD0023811F036
:107E7000013811F484E001C083E08DD089C08234E0
:107E800011F484E103C0853419F485E0A6D080C0E4
:107E9000853579F488D0E82EFF2485D0082F10E0AE
:107EA000102F00270E291F29000F111F8ED06801E7
:107EB0006FC0863521F484E090D080E0DECF843638
:107EC00009F040C070D06FD0082F6DD080E0C81688
:107ED00080E7D80618F4F601B7BEE895C0E0D1E017
:107EE00062D089930C17E1F7F0E0CF16F0E7DF06D8
:107EF00018F0F601B7BEE89568D007B600FCFDCFD4
:107F0000A601A0E0B1E02C9130E011968C91119780
:107F100090E0982F8827822B932B1296FA010C0160
:107F200087BEE89511244E5F5F4FF1E0A038BF0790
:107F300051F7F601A7BEE89507B600FCFDCF97BE46
:107F4000E89526C08437B1F42ED02DD0F82E2BD052
:107F50003CD0F601EF2C8F010F5F1F4F84911BD097
:107F6000EA94F801C1F70894C11CD11CFA94CF0C13
:107F7000D11C0EC0853739F428D08EE10CD085E9AC
:107F80000AD08FE07ACF813511F488E018D01DD067
:107F900080E101D065CF982F8091C00085FFFCCF94
:107FA0009093C60008958091C00087FFFCCF809118
:107FB000C00084FD01C0A8958091C6000895E0E648
:107FC000F0E098E1908380830895EDDF803219F02E
:107FD00088E0F5DFFFCF84E1DECF1F93182FE3DFCA
:107FE0001150E9F7F2DF1F91089580E0E8DFEE27F6
:047FF000FF270994CA
:027FFE00040479
:0400000300007E007B
:00000001FF